:020000040800F2
:10000000FCFF0020F1170000E9170000E9170000CD
:10001000E9170000E9170000E9170000E9170000E0
:10002000E9170000E9170000E9170000E9170000D0
:10003000E9170000E9170000E9170000E9170000C0
:10004000E9170000E9170000E9170000E9170000B0
:10005000E9170000E9170000E9170000E9170000A0
:10006000E9170000E9170000E9170000E917000090
:10007000E9170000E9170000E9170000E917000080
:10008000E9170000E9170000E9170000E917000070
:10009000E9170000E9170000E9170000E917000060
:1000A000E9170000E9170000E9170000E917000050
:1000B000E9170000E9170000E9170000E917000040
:1000C000E9170000E9170000E9170000E917000030
:1000D000E9170000E9170000E9170000E917000020
:1000E000E9170000E9170000E9170000E917000010
:1000F000E9170000E9170000E9170000E917000000
:10010000E9170000E9170000E9170000E9170000EF
:10011000E9170000E9170000E9170000E9170000DF
:10012000E9170000E9170000E9170000E9170000CF
:10013000E9170000E9170000E9170000E9170000BF
:10014000E9170000E9170000E9170000E9170000AF
:1001500081B00248006801B0704700BF9C000020D9
:1001600083B0CDF800E000F0FF031A09104603F059
:100170000F02134614E0194A02921FE0184A029235
:100180001CE0184A029219E0174A029216E0174A38
:10019000029213E0164A029210E0164A02920DE013
:1001A0000028E8D00128E9D00228EAD00328EBD0C3
:1001B0000428ECD00528EDD00628EED0012212B29A
:1001C0009A40ADF8042002980A46BDF8041000F0E9
:1001D00069FADDF800E003B0704700BF0008014095
:1001E000000C0140001001400014014000180140C3
:1001F000001C01400020014081B0194900EA0101C2
:10020000084600220EE0042022E0082020E0102012
:100210001EE020201CE040201AE0802018E040F280
:10022000001015E00F498842EDD00F498842ECD00C
:100230000E498842EBD00E498842EAD00D498842E7
:10024000E9D00D498842E8D00C498842E7D01046F1
:100250000B49096841EA000209490A6001B0704788
:1002600000FCFFFF00080140000C014000100140AD
:100270000014014000180140001C01400020014012
:100280001810024082B0CDF800E0034619460191F3
:10029000FFF75EFF40F2E83100FB01F201990A60CE
:1002A0001F490978C1F30311C8B21E49091808781B
:1002B000C0B21A1D1968C140116019490988C1F3FB
:1002C000022188B2174909180878C0B203F208025F
:1002D000191D0968C140116011490988C1F3C22183
:1002E00088B2104909180878C0B203F20C02191D2F
:1002F0000968C14011600A490988C1F3813188B297
:10030000094909180978C8B203F2100203F20C0176
:100310000968B1FBF0F11160DDF800E002B0704750
:1003200004100240E81B00000C0C000081B0CDF866
:1003300000E0012252B23E490A6000F268010B68F7
:100340006FF0006103EA0102144603F00061C90E78
:100350000B4602F00041B1F1004F02D135490A6865
:1003600001E035490A6804F47021090C0E464FF685
:10037000FF7104EA01010D4604F44011B1F5401F7C
:100380000DD16FF0706102EA01010E462A490A6838
:100390006FF070610A4028490A60324616E004F4A2
:1003A0008011B1F5801F09D14FF00301B140C9435D
:1003B00002EA010141F070610A4607E0610D09019E
:1003C00005FA01F1C9430A4042F070622BB1610D98
:1003D000090105FA01F10A43FFE704F00041B1F118
:1003E000004F02D113490A6001E013490A6040F24C
:1003F000000A81464FEA8A0109EB01010968B1F15F
:10040000FF3F10D009F134014FEA8A03C918096887
:100410000A4609EB0301096808461146FFF7A0FEEA
:100420000AF1010AE6E7DDF800E001B0704700BF1D
:10043000000342421C0001400400014089B0CDF895
:1004400000E0834698B28C46BDF824100A9E04ACA6
:10045000ADF80410ADF808002046FFF713FFBDF813
:100460000800BDF80410644CA34512D101256DB2FB
:10047000624C2560624D634C2560634D634C256082
:10048000634D644C2560644D644C2560079C039467
:1004900056E0634CA34512D101256DB2614C256035
:1004A000614D584C2560614D584C2560604D594C4C
:1004B0002560604D594C2560069C039440E05E4CDD
:1004C000A34512D101256DB25C4C25605C4D4D4CAD
:1004D00025605C4D4D4C25605B4D4E4C25605B4D61
:1004E0004E4C2560069C03942AE0594CA34512D13A
:1004F00001256DB2574C2560574D424C2560574D34
:10050000424C2560564D434C2560564D434C25606A
:10051000069C039414E0544CA34511D101256DB2FF
:10052000524C2560524D374C2560524D374C25605A
:10053000514D384C2560514D384C2560069C039434
:10054000ADF80410ADF808003046FFF7EFFEBDF837
:100550000800BDF804100BF1100500242C600BF10D
:1005600010052C680C432C600BF10C0500242C604A
:1005700018B140F4806080B2FFE70BF10C052C68E5
:1005800004432C600BF10C060125346865F34D34EF
:1005900034600BF10C060125346865F3C304346044
:1005A0000BF10C060125346865F3820434600BF10D
:1005B000140500242C60039D192465434FEA8C0424
:1005C000B5FBF4F76424B7FBF4F426013509642481
:1005D0006C433C1B240104F232056424B5FBF4F4A3
:1005E00004F00F0446EA04040BF10805A4B22C60E1
:1005F000DDF800E009B0704700380140380342429E
:100600009D0A0000A8000020FFFFFFFFAC000020B3
:10061000FFFFFFFFB0000020FFFFFFFFB40000203E
:1006200000440040C4034242F10A0000FFFFFFFF04
:10063000FFFFFFFFFFFFFFFF00480040C8034242EB
:1006400079090000FFFFFFFFFFFFFFFFFFFFFFFF34
:10065000004C0040CC034242D9090000FFFFFFFFDD
:10066000FFFFFFFFFFFFFFFF00500040D0034242AB
:1006700095090000FFFFFFFFFFFFFFFFFFFFFFFFE8
:1006800081B000F20C02116000F208021368C3F39B
:10069000000202B9F8E700F20C02126890B201B051
:1006A0007047FFFF81B0CDF800E08CB21546774B64
:1006B00000EA03031E461846FFF79EFDB4F1FF0F44
:1006C0000CD1734B9D4203D14FF033333360D9E0EB
:1006D000422D03D14FF044333360D3E04FF6FF7324
:1006E0009C4214D16A4B9D4207D14FF033333360A3
:1006F000341D4FF033332360C4E0422D07D14FF057
:1007000044333360341D4FF044332360BAE000219A
:10071000002005F001030BB100211DE005F00203EC
:1007200033B105F4C0730BB1082100E0042113E0DC
:1007300005F0040333B105F020030BB1042100E000
:10074000002109E005F0080333B105F020030BB1E7
:100750000C2100E00821FFE74E4B05EA03030BB133
:10076000032009E005F400730BB1022004E005F456
:1007700080630BB10120FFE705F00C030BB10143CF
:10078000FFE704F0FF039BB2002B3BD0376800204B
:100790001FFA84F832462E4608282CD24FF0010367
:1007A00003FA00F408EA0403A34222D185004FF0C3
:1007B0000F03AB40DB4307EA030401FA05F344EA05
:1007C00003031D4606F48173B3F5817F05D102F260
:1007D00014044FF001038340236006F08203822B50
:1007E00005D102F210044FF00103834023602F462D
:1007F000FFE7401CD0E717601FFA88F00F4631462C
:10080000164602E00F462946A0B2B0F1FF0F39D9D3
:10081000331DD3F800800022082A30D202F20804E7
:100820004FF0010303FA04F400EA0403A34224D1C5
:1008300095004FF00F03AB40DB4308EA030807FACB
:1008400005F348EA030801F48173B3F5817F07D10A
:1008500006F2140502F208044FF00103A3402B60D6
:1008600001F08203822B07D106F2100502F2080480
:100870004FF00103A3402B60FFE7521CCCE7331D70
:10088000C3F80080DDF800E001B0704700FCFFFF16
:10089000140008000008080081B0CDF800E081B223
:1008A0000348FFF7EDFEDDF800E001B0704700BF40
:1008B0000038004081B0CDF800E081B20348FFF776
:1008C000DFFEDDF800E001B0704700BF003C0040F3
:1008D00081B0ADF800100146BDF800000B68C3F30D
:1008E000C01202B9FAE70A1D106001B07047FFFF9D
:1008F00081B0CDF800E081B20348FFF7C1FEDDF81A
:1009000000E001B0704700BF0030014081B000231B
:100910000360CB009BB242EA030304689BB244EA43
:1009200003030360051D13141C462B6864F3820344
:100930002B6000F21C0500242B6864F3CB232B6092
:100940000124036864F38613036001B07047FFFF5E
:1009500081B0CDF800E0019D2C4610B408B493B2EC
:100960008AB201460348FFF769FD02B0DDF800E0F6
:1009700001B070470048004081B0CDF800E081B27E
:100980000348FFF7A5FFDDF800E001B0704700BFA6
:100990000048004081B0CDF800E081B20348FFF785
:1009A00097FFDDF800E001B0704700BF0050004045
:1009B00081B0CDF800E0019D2C4610B408B493B28C
:1009C0008AB201460348FFF739FD02B0DDF800E0C6
:1009D00001B070470038014081B0CDF800E081B22D
:1009E0000348FFF775FFDDF800E001B0704700BF76
:1009F000004C004081B0CDF800E0019D2C4610B4C1
:100A000008B493B28AB201460348FFF717FD02B05B
:100A1000DDF800E001B070470044004081B0CDF83F
:100A200000E04FF0420289B2FFF73CFEDDF800E043
:100A300001B0704781B0CDF800E0044A89B2FFF7F9
:100A400031FEDDF800E001B0704700BF140008007F
:100A500084B0CDF800E0ADF80C2001900291BDF813
:100A60000C40BDF80C305B1EADF80C307CB1019B26
:100A70001B78DCB2A0B2084C2468A047029B187017
:100A8000029B5B1C0293019B5B1C0193E7E7DDF873
:100A900000E004B0704700BF8C00002081B0CDF8AA
:100AA00000E081B20348FFF713FFDDF800E001B07A
:100AB000704700BF0038014081B0CDF800E081B23E
:100AC0000348FFF7DDFDDDF800E001B0704700BF2F
:100AD000003C004081B0CDF800E081B20348FFF750
:100AE000CFFDDDF800E001B0704700BF00300140ED
:100AF00081B0CDF800E081B20348FFF7E9FEDDF8F0
:100B000000E001B0704700BF0044004081B0CDF864
:100B100000E081B20348FFF7B3FDDDF800E001B06B
:100B2000704700BF0038004083B0CDF800E08DF87A
:100B3000040002910B4C0C4B1C600C4C0C4B1C60C9
:100B4000012464B20B4B1C601046FFF7EFFB029AC6
:100B50009DF804100848FFF7D9FEDDF800E003B067
:100B6000704700BFB5080000A0000020B90A0000CF
:100B7000A4000020BC034242003C004081B0024976
:100B8000086001B0704700BF9881214281B00249DE
:100B9000086001B0704700BF9C81214281B00249CA
:100BA000086001B0704700BFA481224281B00249B1
:100BB000086001B0704700BFA081224281B00249A5
:100BC000086001B0704700BF9401214281B0024922
:100BD000086001B0704700BFA801224281B00249FD
:100BE000086001B0704700BFAC01224281B00249E9
:100BF000086001B0704700BF8C01224281B00249F9
:100C0000086001B0704700BFB881224202040608A4
:100C100081B044F67F77C0F212077F1EFDD100BF7E
:100C200000BF00BF00BF00BF01B0704781B000F23D
:100C3000300303F218010A6808490A6003F21C0134
:100C40000A6807490A6000F208010A6805490A6053
:100C5000011D0A6804490A6001B070479000002035
:100C600094000020840000209800002081B00268D9
:100C700003490A60011D0A6802490A6001B0704711
:100C8000880000208C00002081B00B4619460346E6
:100C900010B21A4604B2431E18B224B10B78137076
:100CA000521C491CF6E701B07047FFFF82B0CDF837
:100CB00000E001A9087000200B4C2468A0470DF14A
:100CC000060201A9084611460222FFF7C1FE0120D3
:100CD000054C2468A0470DF10601491C0978C8B2EB
:100CE000DDF800E002B070478400002083B0CDF84A
:100CF00000E08AB2014690B283B2421E90B26BB15C
:100D00000A78D4B2ADF804000291A0B2054C246870
:100D1000A0470299BDF80400491CEDE7DDF800E0AA
:100D200003B070478800002081B00249086001B01C
:100D3000704700BF9C81214281B00249086001B028
:100D4000704700BFAC81224281B00249086001B007
:100D5000704700BFB081224281B00249086001B0F3
:100D6000704700BFB001224281B00249086001B063
:100D7000704700BF9881214281B00249086001B0EC
:100D8000704700BF9481224281B00249086001B0DF
:100D9000704700BF9881224281B00249086001B0CB
:100DA000704700BFA881224281B0CDF800E0011D4C
:100DB0000A680168C8B21146034AFFF7B5FE002071
:100DC000DDF800E001B070471C1B000081B0CDF8D9
:100DD00000E0094902B440F2000340F2000240F290
:100DE0000001FFF707FE01B0044A05490A60002030
:100DF000DDF800E001B07047B01A0000F10A000011
:100E00008000002081B0CDF800E0011D0A68016873
:100E1000C8B21146034AFFF787FE0020DDF800E064
:100E200001B070471C1B000081B0CDF800E00178D4
:100E3000CCB2A0B2034C2468A0470020DDF800E04B
:100E400001B070478000002081B0CDF800E0094972
:100E500002B440F2000340F2000240F20001FFF74A
:100E600077FD01B0044A05490A600020DDF800E082
:100E700001B07047D81900007909000080000020F7
:100E800081B0CDF800E0A9E0012905D140F21001C0
:100E90006548FFF7C3FD04E040F210016248FFF728
:100EA000C9FDBBE0012905D140F204015F48FFF70D
:100EB000B5FD04E040F204015C48FFF7BBFDADE086
:100EC000012905D142F200015948FFF7A7FD04E0CE
:100ED00042F200015648FFF7ADFD9FE0012905D120
:100EE00040F200415148FFF799FD04E040F2004113
:100EF0004E48FFF79FFD91E0012905D140F6000122
:100F00004A48FFF78BFD04E040F600014748FFF731
:100F100091FD83E0012905D141F200014348FFF72B
:100F20007DFD04E041F200014048FFF783FD75E0DC
:100F3000012905D140F201013B48FFF76FFD04E0B4
:100F400040F201013848FFF775FD67E0012905D13E
:100F500040F200413648FFF761FD04E040F20041F5
:100F60003348FFF767FD59E0012905D140F2002120
:100F70002F48FFF753FD04E040F200212C48FFF713
:100F800059FD4BE0012905D140F200112848FFF737
:100F900045FD04E040F200112548FFF74BFD3DE020
:100FA000012905D140F240012248FFF737FD04E056
:100FB00040F240011F48FFF73DFD2FE0012905D118
:100FC00040F280011B48FFF729FD04E040F2800158
:100FD0001848FFF72FFD21E0012020E000283FF412
:100FE00053AF01283FF45EAF02283FF469AF0328F6
:100FF0003FF474AF04283FF47FAF05283FF48AAF75
:1010000006283FF495AF0728A0D00828ACD00928BF
:10101000B8D00A28C4D00B28D0D0DDE70020DDF8F6
:1010200000E001B0704700BF00080140001001401F
:1010300000140140000C014081B0CDF800E00949E6
:1010400002B440F2000340F2000240F20001FFF758
:10105000AFFC01B0044A05490A600020DDF800E059
:1010600001B07047441A00009D0A00008000002073
:1010700081B0CDF800E0094902B440F2000340F22B
:10108000000240F20001FFF7B5FC01B0044A054937
:101090000A600020DDF800E001B07047B01A0000DF
:1010A000F10A00008000002081B00249086001B010
:1010B000704700BFAC01224281B00249086001B014
:1010C000704700BFA801224281B00249086001B008
:1010D000704700BF8001214281B00249086001B021
:1010E000704700BFB001224281B00249086001B0E0
:1010F000704700BF9001214281B0CDF800E0A9E027
:10110000012905D140F220016548FFF787FC04E082
:1011100040F220016248FFF78DFCBBE0012905D1B8
:1011200040F208015F48FFF779FC04E040F2080153
:101130005C48FFF77FFCADE0012905D144F20001D6
:101140005948FFF76BFC04E044F200015648FFF7F2
:1011500071FC9FE0012905D140F200415148FFF7A1
:101160005DFC04E040F200414E48FFF763FC91E073
:10117000012905D140F600014A48FFF74FFC04E081
:1011800040F600014748FFF755FC83E0012905D1EF
:1011900041F200014348FFF741FC04E041F2000145
:1011A0004048FFF747FC75E0012905D141F20001F5
:1011B0003D48FFF733FC04E041F200013A48FFF7F5
:1011C00039FC67E0012905D140F600013648FFF7F8
:1011D00025FC04E040F600013348FFF72BFC59E002
:1011E000012905D140F240012F48FFF717FC04E028
:1011F00040F240012C48FFF71DFC4BE0012905D1CE
:1012000040F220012848FFF709FC04E040F22001E9
:101210002548FFF70FFC3DE0012905D140F24001D0
:101220002248FFF7FBFB04E040F240011F48FFF7B4
:1012300001FC2FE0012905D140F280011B48FFF796
:10124000EDFB04E040F280011848FFF7F3FB21E0DA
:10125000012020E000283FF453AF01283FF45EAFA7
:1012600002283FF469AF03283FF474AF04283FF429
:101270007FAF05283FF48AAF06283FF495AF0728D3
:10128000A0D00828ACD00928B8D00A28C4D00B2890
:10129000D0D0DDE70020DDF800E001B0704700BFEE
:1012A000000801400010014000140140000C014002
:1012B00081B00249086001B0704700BFB48122428A
:1012C00081B00249086001B0704700BF8801224226
:1012D00083B0CDF800E001AB5A1C010E01F0FF0114
:1012E000C9B211709A1C010C01F0FF01C9B2117052
:1012F000DA1C010A01F0FF01C9B211701A1D00F0D9
:10130000FF01C9B21170DC2119700020074C24685C
:10131000A04701A908460521FFF7E8FC0120034C7E
:101320002468A047DDF800E003B070478400002087
:1013300081B0CDF800E00520FFF7B8FC00F0010017
:10134000C0B208B1012000E00020DDF800E001B0EB
:101350007047FFFFADF20C2DCDF800E081908DF8C5
:10136000082201AD6C1C0B0EDBB22370AC1C0B0C05
:10137000DBB22370EC1C0B0ADBB223702C1DCBB24A
:10138000237013232B7000200E4C2468A0479DF877
:1013900008325D1D41AC01ABAAB221461846FFF7E9
:1013A00057FB0120074C2468A04741AB5B1D9DF80B
:1013B000082219468198FFF767FCDDF800E00DF27E
:1013C0000C2D704784000020C2B0CDF800E002ADC3
:1013D0002C1D01F0FF03DBB22370EC1C0B0A03F0A1
:1013E000FF03DBB22370AC1C0B0C03F0FF03DBB27A
:1013F00023706C1C0B0E03F0FF03DBB2237012236F
:101400002B706B1D8DF8042001461846FFF73CFC3D
:101410000020094C2468A0479DF80420541D02AB0D
:10142000A1B21846FFF762FC0120034C2468A047D4
:10143000DDF800E042B070478400002081B0CDF8B4
:1014400000E05FFA81F95FFA82FA0FE05FFA8AF151
:101450005FFA89F0FFF714FD0DE05FFA8AF15FFA99
:1014600089F0FFF749FE06E0012004E00028EDD0F6
:101470000128F2D0F8E7DDF800E001B07047FFFF87
:1014800082B0CDF800E08DF804000020074C2468FD
:10149000A04701A908460121FFF728FC0120034CC1
:1014A0002468A047DDF800E002B070478400002007
:1014B00081B0CDF800E011E00846FFF7C5FC16E06A
:1014C0000846FFF7D5FD12E00846FFF7B5FD0EE030
:1014D0000846FFF77BFC0AE0012008E00028EBD07B
:1014E0000128EDD02028EFD03028F1D0F4E7DDF846
:1014F00000E001B07047FFFF83B0CDF800E0024686
:1015000010460D228DF808200A228DF809201FE0D0
:10151000FFF78AFC23E002782AB10190FFF784FCF0
:101520000198401CF7E71AE002782AB10190FFF712
:101530007BFC0198401CF7E702AA1046FFF774FCF9
:101540000DF109021046FFF76FFC08E0062007E0E6
:101550000029DDD00129DED00229E5D0F6E7002000
:10156000DDF800E003B0704781B0CDF800E003463D
:101570000846FFF77BFB1846FFF758FB0120054C98
:101580002468A0470120044C2468A047DDF800E04F
:1015900001B07047980000208400002081B0CDF891
:1015A00000E08B4609E05846FFF72CFC0AE058465D
:1015B000FFF7FAFB06E0012004E00028F3D0012841
:1015C000F5D0F8E7DDF800E001B0704781B0CDF864
:1015D00000E00020064C2468A047FFF719FB01201B
:1015E000034C2468A047DDF800E001B0704700BF5D
:1015F0009800002081B0CDF800E005490548FFF7CC
:10160000B3FFFFF7E3FFDDF800E001B0704700BF74
:10161000001C0000881B000081B01548006840F0E5
:101620000101134801601349134801601048016823
:10163000124801400E4801600D4801686FF4802097
:1016400001400B4801600C4801686FF4FE00014046
:1016500009480160064801686FF0A0500140044845
:1016600001604FF000010648016001B0704700BF03
:10167000001002400000FFF004100240FFFFF6FEE1
:101680002C10024081B01CF8019B0BF8019BBBEBB6
:101690000A0FF8D101B0704781B0CDF800E0002208
:1016A00001210020FFF7CAFE002202210020FFF7DF
:1016B000C5FE0E4801460020FFF770FF42F2805140
:1016C0002020FFF7F5FE0A480221FFF715FF44F638
:1016D0007F77C0F2120700BF00BF7F1EFDD100BFA1
:1016E00000BF00BFDDF800E001B07047F81B00004C
:1016F00000000020FFFFFFFF81B0CDF800E00620D2
:10170000FFF7BEFE1F480221FFF7F6FE41F234202C
:10171000FFF7DEFDFFF70CFE00B1FBE71A480221E0
:10172000FFF7EAFE0620FFF7ABFE102241F234215C
:101730001648FFF749FEFFF7FBFD00B1FBE7FFF797
:1017400067FA102241F234211148FFF703FEFFF738
:10175000EFFD00B1FBE70F480121FFF7CDFE0221AD
:101760000B48FFF7C9FE4BF6FF47C0F2015700BF19
:1017700000BF7F1EFDD100BF00BF00BFDDF800E04D
:1017800001B07047140000202D000020450000200B
:10179000560000206A00002081B04FF000094FF091
:1017A000000CBDEB0A0F04DCBDEB0B0F01DBD446D4
:1017B000EA464BF8049BBBEB0A0FFAD1BCEB0A0FCD
:1017C00005DDE246D9F800B00BF1040BF1E701B0FA
:1017D0007047FFFF81B002490248016001B07047C5
:1017E000401901009C00002081B0FEE701B0704765
:1017F00081B000F00FF800F047FAFFF7EBFF00F0C0
:1018000003FAFFF749FFFFF7F5FEFFF775FFFCE767
:10181000FEE7FFFF81B0CDF800E0464A464B474C5B
:1018200047494BF68030814206D94648006840F06F
:1018300002014448016011E045F6C050814206D9DA
:101840004048006840F001013E48016006E03D4824
:1018500001686FF0070001403A480160FFF7DCFEC5
:101860003948036039480460394802EA00013948C0
:10187000016002F0010040B119463648006800F0EE
:101880000200002800D1F8E700E0194602F4803099
:1018900040B10B462F48006800F40030002800D10A
:1018A000F8E700E00B4602F0805068B12948006874
:1018B00040F08051274801602648006800F0005041
:1018C000002800D1F8E7FFE702F0806078B12148F6
:1018D000006840F080611F48016011461A461D48AB
:1018E000006800F00060002800D1F8E701E0114630
:1018F0001A4601F0807070B11648006840F080719F
:101900001448016011461348006800F0007000B9E7
:10191000F9E70A46FFE70C48006800F00C01900068
:1019200000F00C00814200D0F5E7DDF800E001B0E6
:10193000704700BF8100010502841D0044060100BC
:101940004019010000200240041002402C10024007
:10195000FFFF0F00001002402D2D2D2053797374CE
:10196000656D20496E6974202D2D2D002D2D2D20A3
:1019700045726173652063686970202D2D53544151
:1019800052542D2D002D2D2D20457261736520633D
:10199000686970202D2D444F4E452D2D004D696BEB
:1019A000726F456C656B74726F6E696B61000000DD
:1019B0000000000000000000000000000000000027
:1019C00000002D2D2D2052656164206275666665CC
:1019D00072203A2000FFFFFF3800000039000000AD
:1019E000FFFFFFFF000000000000000000000000FB
:1019F00000000000000000000000000000000000E7
:101A000000000000000000000000000018080000B6
:101A100018000000000000000000000000000000AE
:101A200000000000000000000000000000000000B6
:101A300000000000000000000000000000000000A6
:101A400030001408090000000A000000FFFFFFFF3B
:101A50000000000000000000000000000000000086
:101A60000000000000000000000000000000000076
:101A7000000000000000000018080000180000002E
:101A80000000000000000000000000000000000056
:101A90000000000000000000000000000000000046
:101AA0000000000000000000000000000400000032
:101AB0003500000036000000FFFFFFFF00000000BF
:101AC0000000000000000000000000000000000016
:101AD0000000000000000000000000000000000006
:101AE00000000000180800001800000000000000BE
:101AF00000000000000000000000000000000000E6
:101B000000000000000000000000000000000000D5
:101B10000000000000000000080000082A0000008B
:101B20002B0000002C000000FFFFFFFF0000000062
:101B300000000000000000000000000000000000A5
:101B40000000000000000000000000000000000095
:101B50001808000018080000180800000000000025
:101B60000000000000000000000000000000000075
:101B70000000000000000000000000000000000065
:101B80000000000000112008E9100000C112000050
:101B9000B1120000B9100000A9100000D910000017
:101BA000C9100000990D00009D0B0000AD0B000056
:101BB0007D0B00008D0B0000FFFFFFFFFFFFFFFF0D
:101BC000FFFFFFFFFFFFFFFFFFFFFFFFFFFFFFFF25
:101BD000FFFFFFFFFFFFFFFFFFFFFFFFFFFFFFFF15
:101BE000FFFFFFFFFFFFFFFF0000000001020304F3
:101BF00001020304060708090700000004030000AF
:101C0000B90A0000B508000000B5DFF814B0DFF82D
:101C100014A0DFF814C0FFF735FD00BD704700BF0A
:101C2000000000207D00002058190000FFFFFFFF8A
:101C3000FFFFFFFFFFFFFFFFFFFFFFFFFFFFFFFFB4
:101C4000FFFFFFFFFFFFFFFFFFFFFFFFFFFFFFFFA4
:101C5000FFFFFFFFFFFFFFFFFFFFFFFFFFFFFFFF94
:101C6000FFFFFFFFFFFFFFFFFFFFFFFFFFFFFFFF84
:101C7000FFFFFFFFFFFFFFFFFFFFFFFFFFFFFFFF74
:101C8000FFFFFFFFFFFFFFFF00B5DFF810B0DFF839
:101C900010A0FFF781FD00BD704700BF00000020CD
:101CA000B8000020FFFFFFFFFFFFFFFFFFFFFFFF68
:00000001FF
