:10000000F0EF01F00000000000EF00F00000000041
:0A0010000000000000000000F3D71C
:10001C00BAC0C9FF016A0150000A05E1000EC7B061
:0C002C00010E016EF8D7C9CF01F01200E0
:10003800BAC0C9FF016A0150000A05E1000EC7B045
:0C004800010E016EF8D7C9CF00F01200C5
:0E005400ACB202D00000FCD7BAC0ADFF120063
:10006200540E0001A66F000EA76FBA0EA86F000E05
:10007200A96FFF0E926FFF0E936F000E946F000E2A
:10008200956FFF0E966FFF0E976F000E986F000E22
:10009200996FFF0E9A6FFF0E9B6F000E9C6F000E02
:1000A2009D6FAC8A900EAB6E948E949C9EAA03D0E8
:0800B200AECF00F0FBD71200F5
:1000BA00380E00019E6F000E9F6FBA0EA06F000EE1
:1000CA00A16F1C0EA26F000EA36FBA0EA46F000ED2
:1000DA00A56F949AB651040A02E1948601D09496C7
:1000EA009488C66AC79CC79EB651C612B851C61232
:1000FA00B751C712B85305E0B951000AD8B4C78C32
:0C010A0003D0B953D8A4C78CC68A1200D9
:100116008D90050E0001BA6F7EDF0001BA6B89DF94
:1001260000C090F08D80150E0C6EC60E0D6E0D2E55
:0A013600FED70C2EFCD700001200CB
:100140000001B96BB6C0E9FFB7C0EAFFEECFB8F067
:10015000B851000A0EE0B8C0BAF07CDF0001B92B3C
:10016000B951B625E96E000EB721EA6EEECFB8F0B0
:04017000EFD71200B3
:100174008B90090E0B6E1E0E0C6EE40E0D6E0D2E82
:10018400FED70C2EFCD70B2EFAD700008B808D8067
:100194003A0E0001B66F000EB76FD0DF0D0EBA6FC6
:0C01A40057DF0A0E0001BA6F53DF120093
:1001B0000900F5CFE6FF0006FBE10106F9E11200B8
:1001C000AADFD00E0C6EC90E0D6E0D2EFED70C2EB2
:1001D000FCD700000000000190A103D0010E006ECA
:0C01E00004D090B102D0006A00D01200E0
:1001EC00FF0E0001AA15B26FABC000F0ACC001F05D
:1001FC00ADC002F0036AFF0E0014B16FACC000F08A
:10020C00ADC001F0026A036AFF0E0014B06FADC0FE
:10021C0000F0016A026A036AFF0E0014006E00C04F
:10022C00AFF08D90120EBA6FF3DE0001916B040EDD
:10023C00915D0EE2AF0EE96E000EEA6E9151E92669
:10024C00D8B0EA2AEECFBAF0E3DE0001912BEFD75B
:10025C00916BAE51915D0EE2660EE96E000EEA6E88
:10026C009151E926D8B0EA2AEECFBAF0D1DE0001DE
:10027C00912BEFD78D80150E0C6EC60E0D6E0D2EBC
:0A028C00FED70C2EFCD70000120074
:100296000F01256B246B236B939294909494969004
:1002A6008B80670EAF6EAC94D9DE520E0B6E2B0EA2
:1002B6000C6E000E0D6E0D2EFED70C2EFCD70B2EDF
:1002C600FAD70000B66BB76BB86B010EB96FF2DEEA
:1002D600A30E0B6E570E0C6E020E0D6E0D2EFED774
:1002E6000C2EFCD70B2EFAD70000150EB66F000E9B
:1002F600B76F23DF0D0EBA6FAADE0A0E0001BA6FC2
:04030600A6DE12005D
:10030A00ADC000F0016A026A036AFF0E0014006EB3
:10031A0000C0AFF0ACC000F0ADC001F0026A036AE1
:10032A00FF0E00140001B06FABC000F0ACC001F0CA
:10033A00ADC002F0036AFF0E0014B16FFF0EAA15DA
:10034A00B26F8D90130EBA6F64DE0001916B040ECA
:10035A00915D0EE2AF0EE96E000EEA6E9151E9264A
:10036A00D8B0EA2AEECFBAF054DE0001912BEFD7CB
:10037A00916BAE51915D13E27C0EB46F000EB56FB6
:10038A009151B427D8B0B52BBA6B51DEB4C0E1FF96
:10039A00B5C0E2FF00C0E6FF0001912BEAD78D80CD
:1003AA00150E0C6EC60E0D6E0D2EFED70C2EFCD73A
:0403BA00000012002D
:1003BE008D90060E0001BA6F2ADE8D80150E0C6E22
:1003CE00C60E0D6E0D2EFED70C2EFCD700001200A1
:0203DE0012000B
:1003E000BFEC02F058DF090E0B6E1E0E0C6EE40E11
:1003F0000D6E0D2EFED70C2EFCD70B2EFAD700005B
:10040000B9DE090E0B6E1E0E0C6EE40E0D6E0D2E77
:10041000FED70C2EFCD70B2EFAD70000E0DF090E1A
:100420000B6E1E0E0C6EE40E0D6E0D2EFED70C2EF6
:10043000FCD70B2EFAD70000660E0001B66F000E37
:10044000B76F7EDE050E0B6E0F0E0C6EF10E0D6E8D
:100450000D2EFED70C2EFCD70B2EFAD70D0EBA6F31
:10046000F9DD0A0E0001BA6FF5DDA9DF090E0B6E8A
:100470001E0E0C6EE40E0D6E0D2EFED70C2EFCD74C
:100480000B2EFAD70000000E0001AA6F000EAB6F12
:10049000010EAC6F000EAD6F110EAE6FA7DE90DED9
:1004A000005201E0FCD7090E0B6E1E0E0C6EE40E1E
:1004B0000D6E0D2EFED70C2EFCD70B2EFAD700009A
:1004C000000E0001AA6F000EAB6F010EAC6F000EA4
:1004D000AD6F110EAE6F19DF73DE005201E0FCD775
:1004E000090E0B6E1E0E0C6EE40E0D6E0D2EFED759
:1004F0000C2EFCD70B2EFAD700007C0E0001B66F35
:10050000000EB76F1DDE0D0EBA6FA4DD0A0E0001DE
:06051000BA6FA0DDFFD769
:10057E0010EE15F0670E006E010E016E160EF66E81
:0E058E00050EF76E000EF86ED8EC00F01200AD
:10051600202E2E2E2053797374656D20696E6974B2
:1005260069616C697A6174696F6E20646F6E6520AB
:050536002E2E2E200016
:10053B00202E2E2E20466C617368203420636C694C
:10054B00636B20696E697469616C697A6174696F38
:0C055B006E20646F6E65202E2E2E200096
:100567004D696B726F20456C656B74726F6E696B4A
:06057700610D0A00000006
:020000040030CA
:0E00000015137F7CF98B91FFFFC0FFE0FF40DE
:00000001FF
